:1000000000308A00C92800002230840083130008D1
:10001000031917280230F800F701F70B0D28F80B29
:100020000C289730F700F70B1328800B0A280800DC
:10003000831606148312061833283230A2000420D7
:100040008316081001308312880683160814831261
:10005000A0010818A00A831606148312061C2B2878
:100060003230A20004208316861483128618482892
:100070003230A200042083168810023083128806D2
:10008000831686148312861C40283230A200042076
:1000900083160615831206195D283230A20004204B
:1000A00083160811043083128806831606158312FE
:1000B000061D55283230A2000420831686158312AF
:1000C000861972283230A200042083168811083065
:1000D00083128806831686158312861D6A2832309D
:1000E000A20004208A110A1214292114210883165F
:1000F0008700831207188A28831688178312881F9F
:100100008A28831609108312091483168910831212
:100110008910C62821142108831687008312071C22
:10012000A428831688178312881FA428831686168E
:100130008312861AA42883160910831209148316C1
:10014000891083128910C62821142108831687007C
:100150008312071CBE28831608178312081FBE28A7
:10016000831606168312061ABE28831609108312F8
:1001700009148316891083128910C6288316091062
:100180008312091083168910831289108A110A12AA
:10019000152903081F398300713083168F009001E1
:1001A0000F08031787110C3003139900A230980031
:1001B000903083129800FF30A100831603170908BE
:1001C000C039890003131F129F12003003178800E3
:1001D00083128701880189018313FF30831603137B
:1001E0008600013087008312A1009F3083168800AB
:1001F0000914891009118911081083120810831637
:100200008810831288108316081183120811831630
:10021000881183128811831609108312091083161E
:0E02200089108312891018287528132963008D
:04400E00E42FFF3F5D
:00000001FF
;PIC16F887
;CRC=FFA1  CREATED="24-May-23 12:53"
